{"contracts/Transactions.sol":{"Transactions":{"abi":[{"anonymous":false,"inputs":[{"indexed":false,"internalType":"address","name":"from","type":"address"},{"indexed":false,"internalType":"address","name":"receiver","type":"address"},{"indexed":false,"internalType":"uint256","name":"amount","type":"uint256"},{"indexed":false,"internalType":"string","name":"message","type":"string"}],"name":"Transfer","type":"event"},{"inputs":[{"internalType":"address payable","name":"receiver","type":"address"},{"internalType":"uint256","name":"amount","type":"uint256"},{"internalType":"string","name":"message","type":"string"}],"name":"addToBlockchain","outputs":[],"stateMutability":"nonpayable","type":"function"},{"inputs":[],"name":"getAllTransactions","outputs":[{"components":[{"internalType":"address","name":"sender","type":"address"},{"internalType":"address","name":"receiver","type":"address"},{"internalType":"uint256","name":"amount","type":"uint256"},{"internalType":"string","name":"message","type":"string"}],"internalType":"struct Transactions.TransferStruct[]","name":"","type":"tuple[]"}],"stateMutability":"view","type":"function"},{"inputs":[],"name":"getTransactionCount","outputs":[{"internalType":"uint256","name":"","type":"uint256"}],"stateMutability":"view","type":"function"}],"evm":{"bytecode":{"linkReferences":{},"object":"608060405234801561001057600080fd5b50610b21806100206000396000f3fe608060405234801561001057600080fd5b50600436106100415760003560e01c806327506f53146100465780632e7700f014610064578063eb12da4a14610082575b600080fd5b61004e61009e565b60405161005b9190610693565b60405180910390f35b61006c610245565b60405161007991906106c4565b60405180910390f35b61009c60048036038101906100979190610892565b61024e565b005b60606001805480602002602001604051908101604052809291908181526020016000905b8282101561023c57838290600052602060002090600402016040518060800160405290816000820160009054906101000a900473ffffffffffffffffffffffffffffffffffffffff1673ffffffffffffffffffffffffffffffffffffffff1673ffffffffffffffffffffffffffffffffffffffff1681526020016001820160009054906101000a900473ffffffffffffffffffffffffffffffffffffffff1673ffffffffffffffffffffffffffffffffffffffff1673ffffffffffffffffffffffffffffffffffffffff168152602001600282015481526020016003820180546101ab90610930565b80601f01602080910402602001604051908101604052809291908181526020018280546101d790610930565b80156102245780601f106101f957610100808354040283529160200191610224565b820191906000526020600020905b81548152906001019060200180831161020757829003601f168201915b505050505081525050815260200190600101906100c2565b50505050905090565b60008054905090565b60016000808282546102609190610991565b92505081905550600160405180608001604052803373ffffffffffffffffffffffffffffffffffffffff1681526020018573ffffffffffffffffffffffffffffffffffffffff16815260200184815260200183815250908060018154018082558091505060019003906000526020600020906004020160009091909190915060008201518160000160006101000a81548173ffffffffffffffffffffffffffffffffffffffff021916908373ffffffffffffffffffffffffffffffffffffffff16021790555060208201518160010160006101000a81548173ffffffffffffffffffffffffffffffffffffffff021916908373ffffffffffffffffffffffffffffffffffffffff1602179055506040820151816002015560608201518160030190805190602001906103939291906103d8565b5050507fcd6e659e4c2e75c3bfe47fecaccf39aeb368116a0ee52afb532e07f6cba6c0d1338484846040516103cb9493929190610a9f565b60405180910390a1505050565b8280546103e490610930565b90600052602060002090601f016020900481019282610406576000855561044d565b82601f1061041f57805160ff191683800117855561044d565b8280016001018555821561044d579182015b8281111561044c578251825591602001919060010190610431565b5b50905061045a919061045e565b5090565b5b8082111561047757600081600090555060010161045f565b5090565b600081519050919050565b600082825260208201905092915050565b6000819050602082019050919050565b600073ffffffffffffffffffffffffffffffffffffffff82169050919050565b60006104d2826104a7565b9050919050565b6104e2816104c7565b82525050565b6000819050919050565b6104fb816104e8565b82525050565b600081519050919050565b600082825260208201905092915050565b60005b8381101561053b578082015181840152602081019050610520565b8381111561054a576000848401525b50505050565b6000601f19601f8301169050919050565b600061056c82610501565b610576818561050c565b935061058681856020860161051d565b61058f81610550565b840191505092915050565b60006080830160008301516105b260008601826104d9565b5060208301516105c560208601826104d9565b5060408301516105d860408601826104f2565b50606083015184820360608601526105f08282610561565b9150508091505092915050565b6000610609838361059a565b905092915050565b6000602082019050919050565b60006106298261047b565b6106338185610486565b93508360208202850161064585610497565b8060005b85811015610681578484038952815161066285826105fd565b945061066d83610611565b925060208a01995050600181019050610649565b50829750879550505050505092915050565b600060208201905081810360008301526106ad818461061e565b905092915050565b6106be816104e8565b82525050565b60006020820190506106d960008301846106b5565b92915050565b6000604051905090565b600080fd5b600080fd5b60006106fe826104a7565b9050919050565b61070e816106f3565b811461071957600080fd5b50565b60008135905061072b81610705565b92915050565b61073a816104e8565b811461074557600080fd5b50565b60008135905061075781610731565b92915050565b600080fd5b600080fd5b7f4e487b7100000000000000000000000000000000000000000000000000000000600052604160045260246000fd5b61079f82610550565b810181811067ffffffffffffffff821117156107be576107bd610767565b5b80604052505050565b60006107d16106df565b90506107dd8282610796565b919050565b600067ffffffffffffffff8211156107fd576107fc610767565b5b61080682610550565b9050602081019050919050565b82818337600083830152505050565b6000610835610830846107e2565b6107c7565b90508281526020810184848401111561085157610850610762565b5b61085c848285610813565b509392505050565b600082601f8301126108795761087861075d565b5b8135610889848260208601610822565b91505092915050565b6000806000606084860312156108ab576108aa6106e9565b5b60006108b98682870161071c565b93505060206108ca86828701610748565b925050604084013567ffffffffffffffff8111156108eb576108ea6106ee565b5b6108f786828701610864565b9150509250925092565b7f4e487b7100000000000000000000000000000000000000000000000000000000600052602260045260246000fd5b6000600282049050600182168061094857607f821691505b6020821081141561095c5761095b610901565b5b50919050565b7f4e487b7100000000000000000000000000000000000000000000000000000000600052601160045260246000fd5b600061099c826104e8565b91506109a7836104e8565b9250827fffffffffffffffffffffffffffffffffffffffffffffffffffffffffffffffff038211156109dc576109db610962565b5b828201905092915050565b6109f0816104c7565b82525050565b6000819050919050565b6000610a1b610a16610a11846104a7565b6109f6565b6104a7565b9050919050565b6000610a2d82610a00565b9050919050565b6000610a3f82610a22565b9050919050565b610a4f81610a34565b82525050565b600082825260208201905092915050565b6000610a7182610501565b610a7b8185610a55565b9350610a8b81856020860161051d565b610a9481610550565b840191505092915050565b6000608082019050610ab460008301876109e7565b610ac16020830186610a46565b610ace60408301856106b5565b8181036060830152610ae08184610a66565b90509594505050505056fea264697066735822122048519739b3bec48a3a05c49c80d5550a150f69caad6f2f46215398b9b8fa6d8f64736f6c63430008090033","opcodes":"PUSH1 0x80 PUSH1 0x40 MSTORE CALLVALUE DUP1 ISZERO PUSH2 0x10 JUMPI PUSH1 0x0 DUP1 REVERT JUMPDEST POP PUSH2 0xB21 DUP1 PUSH2 0x20 PUSH1 0x0 CODECOPY PUSH1 0x0 RETURN INVALID PUSH1 0x80 PUSH1 0x40 MSTORE CALLVALUE DUP1 ISZERO PUSH2 0x10 JUMPI PUSH1 0x0 DUP1 REVERT JUMPDEST POP PUSH1 0x4 CALLDATASIZE LT PUSH2 0x41 JUMPI PUSH1 0x0 CALLDATALOAD PUSH1 0xE0 SHR DUP1 PUSH4 0x27506F53 EQ PUSH2 0x46 JUMPI DUP1 PUSH4 0x2E7700F0 EQ PUSH2 0x64 JUMPI DUP1 PUSH4 0xEB12DA4A EQ PUSH2 0x82 JUMPI JUMPDEST PUSH1 0x0 DUP1 REVERT JUMPDEST PUSH2 0x4E PUSH2 0x9E JUMP JUMPDEST PUSH1 0x40 MLOAD PUSH2 0x5B SWAP2 SWAP1 PUSH2 0x693 JUMP JUMPDEST PUSH1 0x40 MLOAD DUP1 SWAP2 SUB SWAP1 RETURN JUMPDEST PUSH2 0x6C PUSH2 0x245 JUMP JUMPDEST PUSH1 0x40 MLOAD PUSH2 0x79 SWAP2 SWAP1 PUSH2 0x6C4 JUMP JUMPDEST PUSH1 0x40 MLOAD DUP1 SWAP2 SUB SWAP1 RETURN JUMPDEST PUSH2 0x9C PUSH1 0x4 DUP1 CALLDATASIZE SUB DUP2 ADD SWAP1 PUSH2 0x97 SWAP2 SWAP1 PUSH2 0x892 JUMP JUMPDEST PUSH2 0x24E JUMP JUMPDEST STOP JUMPDEST PUSH1 0x60 PUSH1 0x1 DUP1 SLOAD DUP1 PUSH1 0x20 MUL PUSH1 0x20 ADD PUSH1 0x40 MLOAD SWAP1 DUP2 ADD PUSH1 0x40 MSTORE DUP1 SWAP3 SWAP2 SWAP1 DUP2 DUP2 MSTORE PUSH1 0x20 ADD PUSH1 0x0 SWAP1 JUMPDEST DUP3 DUP3 LT ISZERO PUSH2 0x23C JUMPI DUP4 DUP3 SWAP1 PUSH1 0x0 MSTORE PUSH1 0x20 PUSH1 0x0 KECCAK256 SWAP1 PUSH1 0x4 MUL ADD PUSH1 0x40 MLOAD DUP1 PUSH1 0x80 ADD PUSH1 0x40 MSTORE SWAP1 DUP2 PUSH1 0x0 DUP3 ADD PUSH1 0x0 SWAP1 SLOAD SWAP1 PUSH2 0x100 EXP SWAP1 DIV PUSH20 0xFFFFFFFFFFFFFFFFFFFFFFFFFFFFFFFFFFFFFFFF AND PUSH20 0xFFFFFFFFFFFFFFFFFFFFFFFFFFFFFFFFFFFFFFFF AND PUSH20 0xFFFFFFFFFFFFFFFFFFFFFFFFFFFFFFFFFFFFFFFF AND DUP2 MSTORE PUSH1 0x20 ADD PUSH1 0x1 DUP3 ADD PUSH1 0x0 SWAP1 SLOAD SWAP1 PUSH2 0x100 EXP SWAP1 DIV PUSH20 0xFFFFFFFFFFFFFFFFFFFFFFFFFFFFFFFFFFFFFFFF AND PUSH20 0xFFFFFFFFFFFFFFFFFFFFFFFFFFFFFFFFFFFFFFFF AND PUSH20 0xFFFFFFFFFFFFFFFFFFFFFFFFFFFFFFFFFFFFFFFF AND DUP2 MSTORE PUSH1 0x20 ADD PUSH1 0x2 DUP3 ADD SLOAD DUP2 MSTORE PUSH1 0x20 ADD PUSH1 0x3 DUP3 ADD DUP1 SLOAD PUSH2 0x1AB SWAP1 PUSH2 0x930 JUMP JUMPDEST DUP1 PUSH1 0x1F ADD PUSH1 0x20 DUP1 SWAP2 DIV MUL PUSH1 0x20 ADD PUSH1 0x40 MLOAD SWAP1 DUP2 ADD PUSH1 0x40 MSTORE DUP1 SWAP3 SWAP2 SWAP1 DUP2 DUP2 MSTORE PUSH1 0x20 ADD DUP3 DUP1 SLOAD PUSH2 0x1D7 SWAP1 PUSH2 0x930 JUMP JUMPDEST DUP1 ISZERO PUSH2 0x224 JUMPI DUP1 PUSH1 0x1F LT PUSH2 0x1F9 JUMPI PUSH2 0x100 DUP1 DUP4 SLOAD DIV MUL DUP4 MSTORE SWAP2 PUSH1 0x20 ADD SWAP2 PUSH2 0x224 JUMP JUMPDEST DUP3 ADD SWAP2 SWAP1 PUSH1 0x0 MSTORE PUSH1 0x20 PUSH1 0x0 KECCAK256 SWAP1 JUMPDEST DUP2 SLOAD DUP2 MSTORE SWAP1 PUSH1 0x1 ADD SWAP1 PUSH1 0x20 ADD DUP1 DUP4 GT PUSH2 0x207 JUMPI DUP3 SWAP1 SUB PUSH1 0x1F AND DUP3 ADD SWAP2 JUMPDEST POP POP POP POP POP DUP2 MSTORE POP POP DUP2 MSTORE PUSH1 0x20 ADD SWAP1 PUSH1 0x1 ADD SWAP1 PUSH2 0xC2 JUMP JUMPDEST POP POP POP POP SWAP1 POP SWAP1 JUMP JUMPDEST PUSH1 0x0 DUP1 SLOAD SWAP1 POP SWAP1 JUMP JUMPDEST PUSH1 0x1 PUSH1 0x0 DUP1 DUP3 DUP3 SLOAD PUSH2 0x260 SWAP2 SWAP1 PUSH2 0x991 JUMP JUMPDEST SWAP3 POP POP DUP2 SWAP1 SSTORE POP PUSH1 0x1 PUSH1 0x40 MLOAD DUP1 PUSH1 0x80 ADD PUSH1 0x40 MSTORE DUP1 CALLER PUSH20 0xFFFFFFFFFFFFFFFFFFFFFFFFFFFFFFFFFFFFFFFF AND DUP2 MSTORE PUSH1 0x20 ADD DUP6 PUSH20 0xFFFFFFFFFFFFFFFFFFFFFFFFFFFFFFFFFFFFFFFF AND DUP2 MSTORE PUSH1 0x20 ADD DUP5 DUP2 MSTORE PUSH1 0x20 ADD DUP4 DUP2 MSTORE POP SWAP1 DUP1 PUSH1 0x1 DUP2 SLOAD ADD DUP1 DUP3 SSTORE DUP1 SWAP2 POP POP PUSH1 0x1 SWAP1 SUB SWAP1 PUSH1 0x0 MSTORE PUSH1 0x20 PUSH1 0x0 KECCAK256 SWAP1 PUSH1 0x4 MUL ADD PUSH1 0x0 SWAP1 SWAP2 SWAP1 SWAP2 SWAP1 SWAP2 POP PUSH1 0x0 DUP3 ADD MLOAD DUP2 PUSH1 0x0 ADD PUSH1 0x0 PUSH2 0x100 EXP DUP2 SLOAD DUP2 PUSH20 0xFFFFFFFFFFFFFFFFFFFFFFFFFFFFFFFFFFFFFFFF MUL NOT AND SWAP1 DUP4 PUSH20 0xFFFFFFFFFFFFFFFFFFFFFFFFFFFFFFFFFFFFFFFF AND MUL OR SWAP1 SSTORE POP PUSH1 0x20 DUP3 ADD MLOAD DUP2 PUSH1 0x1 ADD PUSH1 0x0 PUSH2 0x100 EXP DUP2 SLOAD DUP2 PUSH20 0xFFFFFFFFFFFFFFFFFFFFFFFFFFFFFFFFFFFFFFFF MUL NOT AND SWAP1 DUP4 PUSH20 0xFFFFFFFFFFFFFFFFFFFFFFFFFFFFFFFFFFFFFFFF AND MUL OR SWAP1 SSTORE POP PUSH1 0x40 DUP3 ADD MLOAD DUP2 PUSH1 0x2 ADD SSTORE PUSH1 0x60 DUP3 ADD MLOAD DUP2 PUSH1 0x3 ADD SWAP1 DUP1 MLOAD SWAP1 PUSH1 0x20 ADD SWAP1 PUSH2 0x393 SWAP3 SWAP2 SWAP1 PUSH2 0x3D8 JUMP JUMPDEST POP POP POP PUSH32 0xCD6E659E4C2E75C3BFE47FECACCF39AEB368116A0EE52AFB532E07F6CBA6C0D1 CALLER DUP5 DUP5 DUP5 PUSH1 0x40 MLOAD PUSH2 0x3CB SWAP5 SWAP4 SWAP3 SWAP2 SWAP1 PUSH2 0xA9F JUMP JUMPDEST PUSH1 0x40 MLOAD DUP1 SWAP2 SUB SWAP1 LOG1 POP POP POP JUMP JUMPDEST DUP3 DUP1 SLOAD PUSH2 0x3E4 SWAP1 PUSH2 0x930 JUMP JUMPDEST SWAP1 PUSH1 0x0 MSTORE PUSH1 0x20 PUSH1 0x0 KECCAK256 SWAP1 PUSH1 0x1F ADD PUSH1 0x20 SWAP1 DIV DUP2 ADD SWAP3 DUP3 PUSH2 0x406 JUMPI PUSH1 0x0 DUP6 SSTORE PUSH2 0x44D JUMP JUMPDEST DUP3 PUSH1 0x1F LT PUSH2 0x41F JUMPI DUP1 MLOAD PUSH1 0xFF NOT AND DUP4 DUP1 ADD OR DUP6 SSTORE PUSH2 0x44D JUMP JUMPDEST DUP3 DUP1 ADD PUSH1 0x1 ADD DUP6 SSTORE DUP3 ISZERO PUSH2 0x44D JUMPI SWAP2 DUP3 ADD JUMPDEST DUP3 DUP2 GT ISZERO PUSH2 0x44C JUMPI DUP3 MLOAD DUP3 SSTORE SWAP2 PUSH1 0x20 ADD SWAP2 SWAP1 PUSH1 0x1 ADD SWAP1 PUSH2 0x431 JUMP JUMPDEST JUMPDEST POP SWAP1 POP PUSH2 0x45A SWAP2 SWAP1 PUSH2 0x45E JUMP JUMPDEST POP SWAP1 JUMP JUMPDEST JUMPDEST DUP1 DUP3 GT ISZERO PUSH2 0x477 JUMPI PUSH1 0x0 DUP2 PUSH1 0x0 SWAP1 SSTORE POP PUSH1 0x1 ADD PUSH2 0x45F JUMP JUMPDEST POP SWAP1 JUMP JUMPDEST PUSH1 0x0 DUP2 MLOAD SWAP1 POP SWAP2 SWAP1 POP JUMP JUMPDEST PUSH1 0x0 DUP3 DUP3 MSTORE PUSH1 0x20 DUP3 ADD SWAP1 POP SWAP3 SWAP2 POP POP JUMP JUMPDEST PUSH1 0x0 DUP2 SWAP1 POP PUSH1 0x20 DUP3 ADD SWAP1 POP SWAP2 SWAP1 POP JUMP JUMPDEST PUSH1 0x0 PUSH20 0xFFFFFFFFFFFFFFFFFFFFFFFFFFFFFFFFFFFFFFFF DUP3 AND SWAP1 POP SWAP2 SWAP1 POP JUMP JUMPDEST PUSH1 0x0 PUSH2 0x4D2 DUP3 PUSH2 0x4A7 JUMP JUMPDEST SWAP1 POP SWAP2 SWAP1 POP JUMP JUMPDEST PUSH2 0x4E2 DUP2 PUSH2 0x4C7 JUMP JUMPDEST DUP3 MSTORE POP POP JUMP JUMPDEST PUSH1 0x0 DUP2 SWAP1 POP SWAP2 SWAP1 POP JUMP JUMPDEST PUSH2 0x4FB DUP2 PUSH2 0x4E8 JUMP JUMPDEST DUP3 MSTORE POP POP JUMP JUMPDEST PUSH1 0x0 DUP2 MLOAD SWAP1 POP SWAP2 SWAP1 POP JUMP JUMPDEST PUSH1 0x0 DUP3 DUP3 MSTORE PUSH1 0x20 DUP3 ADD SWAP1 POP SWAP3 SWAP2 POP POP JUMP JUMPDEST PUSH1 0x0 JUMPDEST DUP4 DUP2 LT ISZERO PUSH2 0x53B JUMPI DUP1 DUP3 ADD MLOAD DUP2 DUP5 ADD MSTORE PUSH1 0x20 DUP2 ADD SWAP1 POP PUSH2 0x520 JUMP JUMPDEST DUP4 DUP2 GT ISZERO PUSH2 0x54A JUMPI PUSH1 0x0 DUP5 DUP5 ADD MSTORE JUMPDEST POP POP POP POP JUMP JUMPDEST PUSH1 0x0 PUSH1 0x1F NOT PUSH1 0x1F DUP4 ADD AND SWAP1 POP SWAP2 SWAP1 POP JUMP JUMPDEST PUSH1 0x0 PUSH2 0x56C DUP3 PUSH2 0x501 JUMP JUMPDEST PUSH2 0x576 DUP2 DUP6 PUSH2 0x50C JUMP JUMPDEST SWAP4 POP PUSH2 0x586 DUP2 DUP6 PUSH1 0x20 DUP7 ADD PUSH2 0x51D JUMP JUMPDEST PUSH2 0x58F DUP2 PUSH2 0x550 JUMP JUMPDEST DUP5 ADD SWAP2 POP POP SWAP3 SWAP2 POP POP JUMP JUMPDEST PUSH1 0x0 PUSH1 0x80 DUP4 ADD PUSH1 0x0 DUP4 ADD MLOAD PUSH2 0x5B2 PUSH1 0x0 DUP7 ADD DUP3 PUSH2 0x4D9 JUMP JUMPDEST POP PUSH1 0x20 DUP4 ADD MLOAD PUSH2 0x5C5 PUSH1 0x20 DUP7 ADD DUP3 PUSH2 0x4D9 JUMP JUMPDEST POP PUSH1 0x40 DUP4 ADD MLOAD PUSH2 0x5D8 PUSH1 0x40 DUP7 ADD DUP3 PUSH2 0x4F2 JUMP JUMPDEST POP PUSH1 0x60 DUP4 ADD MLOAD DUP5 DUP3 SUB PUSH1 0x60 DUP7 ADD MSTORE PUSH2 0x5F0 DUP3 DUP3 PUSH2 0x561 JUMP JUMPDEST SWAP2 POP POP DUP1 SWAP2 POP POP SWAP3 SWAP2 POP POP JUMP JUMPDEST PUSH1 0x0 PUSH2 0x609 DUP4 DUP4 PUSH2 0x59A JUMP JUMPDEST SWAP1 POP SWAP3 SWAP2 POP POP JUMP JUMPDEST PUSH1 0x0 PUSH1 0x20 DUP3 ADD SWAP1 POP SWAP2 SWAP1 POP JUMP JUMPDEST PUSH1 0x0 PUSH2 0x629 DUP3 PUSH2 0x47B JUMP JUMPDEST PUSH2 0x633 DUP2 DUP6 PUSH2 0x486 JUMP JUMPDEST SWAP4 POP DUP4 PUSH1 0x20 DUP3 MUL DUP6 ADD PUSH2 0x645 DUP6 PUSH2 0x497 JUMP JUMPDEST DUP1 PUSH1 0x0 JUMPDEST DUP6 DUP2 LT ISZERO PUSH2 0x681 JUMPI DUP5 DUP5 SUB DUP10 MSTORE DUP2 MLOAD PUSH2 0x662 DUP6 DUP3 PUSH2 0x5FD JUMP JUMPDEST SWAP5 POP PUSH2 0x66D DUP4 PUSH2 0x611 JUMP JUMPDEST SWAP3 POP PUSH1 0x20 DUP11 ADD SWAP10 POP POP PUSH1 0x1 DUP2 ADD SWAP1 POP PUSH2 0x649 JUMP JUMPDEST POP DUP3 SWAP8 POP DUP8 SWAP6 POP POP POP POP POP POP SWAP3 SWAP2 POP POP JUMP JUMPDEST PUSH1 0x0 PUSH1 0x20 DUP3 ADD SWAP1 POP DUP2 DUP2 SUB PUSH1 0x0 DUP4 ADD MSTORE PUSH2 0x6AD DUP2 DUP5 PUSH2 0x61E JUMP JUMPDEST SWAP1 POP SWAP3 SWAP2 POP POP JUMP JUMPDEST PUSH2 0x6BE DUP2 PUSH2 0x4E8 JUMP JUMPDEST DUP3 MSTORE POP POP JUMP JUMPDEST PUSH1 0x0 PUSH1 0x20 DUP3 ADD SWAP1 POP PUSH2 0x6D9 PUSH1 0x0 DUP4 ADD DUP5 PUSH2 0x6B5 JUMP JUMPDEST SWAP3 SWAP2 POP POP JUMP JUMPDEST PUSH1 0x0 PUSH1 0x40 MLOAD SWAP1 POP SWAP1 JUMP JUMPDEST PUSH1 0x0 DUP1 REVERT JUMPDEST PUSH1 0x0 DUP1 REVERT JUMPDEST PUSH1 0x0 PUSH2 0x6FE DUP3 PUSH2 0x4A7 JUMP JUMPDEST SWAP1 POP SWAP2 SWAP1 POP JUMP JUMPDEST PUSH2 0x70E DUP2 PUSH2 0x6F3 JUMP JUMPDEST DUP2 EQ PUSH2 0x719 JUMPI PUSH1 0x0 DUP1 REVERT JUMPDEST POP JUMP JUMPDEST PUSH1 0x0 DUP2 CALLDATALOAD SWAP1 POP PUSH2 0x72B DUP2 PUSH2 0x705 JUMP JUMPDEST SWAP3 SWAP2 POP POP JUMP JUMPDEST PUSH2 0x73A DUP2 PUSH2 0x4E8 JUMP JUMPDEST DUP2 EQ PUSH2 0x745 JUMPI PUSH1 0x0 DUP1 REVERT JUMPDEST POP JUMP JUMPDEST PUSH1 0x0 DUP2 CALLDATALOAD SWAP1 POP PUSH2 0x757 DUP2 PUSH2 0x731 JUMP JUMPDEST SWAP3 SWAP2 POP POP JUMP JUMPDEST PUSH1 0x0 DUP1 REVERT JUMPDEST PUSH1 0x0 DUP1 REVERT JUMPDEST PUSH32 0x4E487B7100000000000000000000000000000000000000000000000000000000 PUSH1 0x0 MSTORE PUSH1 0x41 PUSH1 0x4 MSTORE PUSH1 0x24 PUSH1 0x0 REVERT JUMPDEST PUSH2 0x79F DUP3 PUSH2 0x550 JUMP JUMPDEST DUP2 ADD DUP2 DUP2 LT PUSH8 0xFFFFFFFFFFFFFFFF DUP3 GT OR ISZERO PUSH2 0x7BE JUMPI PUSH2 0x7BD PUSH2 0x767 JUMP JUMPDEST JUMPDEST DUP1 PUSH1 0x40 MSTORE POP POP POP JUMP JUMPDEST PUSH1 0x0 PUSH2 0x7D1 PUSH2 0x6DF JUMP JUMPDEST SWAP1 POP PUSH2 0x7DD DUP3 DUP3 PUSH2 0x796 JUMP JUMPDEST SWAP2 SWAP1 POP JUMP JUMPDEST PUSH1 0x0 PUSH8 0xFFFFFFFFFFFFFFFF DUP3 GT ISZERO PUSH2 0x7FD JUMPI PUSH2 0x7FC PUSH2 0x767 JUMP JUMPDEST JUMPDEST PUSH2 0x806 DUP3 PUSH2 0x550 JUMP JUMPDEST SWAP1 POP PUSH1 0x20 DUP2 ADD SWAP1 POP SWAP2 SWAP1 POP JUMP JUMPDEST DUP3 DUP2 DUP4 CALLDATACOPY PUSH1 0x0 DUP4 DUP4 ADD MSTORE POP POP POP JUMP JUMPDEST PUSH1 0x0 PUSH2 0x835 PUSH2 0x830 DUP5 PUSH2 0x7E2 JUMP JUMPDEST PUSH2 0x7C7 JUMP JUMPDEST SWAP1 POP DUP3 DUP2 MSTORE PUSH1 0x20 DUP2 ADD DUP5 DUP5 DUP5 ADD GT ISZERO PUSH2 0x851 JUMPI PUSH2 0x850 PUSH2 0x762 JUMP JUMPDEST JUMPDEST PUSH2 0x85C DUP5 DUP3 DUP6 PUSH2 0x813 JUMP JUMPDEST POP SWAP4 SWAP3 POP POP POP JUMP JUMPDEST PUSH1 0x0 DUP3 PUSH1 0x1F DUP4 ADD SLT PUSH2 0x879 JUMPI PUSH2 0x878 PUSH2 0x75D JUMP JUMPDEST JUMPDEST DUP2 CALLDATALOAD PUSH2 0x889 DUP5 DUP3 PUSH1 0x20 DUP7 ADD PUSH2 0x822 JUMP JUMPDEST SWAP2 POP POP SWAP3 SWAP2 POP POP JUMP JUMPDEST PUSH1 0x0 DUP1 PUSH1 0x0 PUSH1 0x60 DUP5 DUP7 SUB SLT ISZERO PUSH2 0x8AB JUMPI PUSH2 0x8AA PUSH2 0x6E9 JUMP JUMPDEST JUMPDEST PUSH1 0x0 PUSH2 0x8B9 DUP7 DUP3 DUP8 ADD PUSH2 0x71C JUMP JUMPDEST SWAP4 POP POP PUSH1 0x20 PUSH2 0x8CA DUP7 DUP3 DUP8 ADD PUSH2 0x748 JUMP JUMPDEST SWAP3 POP POP PUSH1 0x40 DUP5 ADD CALLDATALOAD PUSH8 0xFFFFFFFFFFFFFFFF DUP2 GT ISZERO PUSH2 0x8EB JUMPI PUSH2 0x8EA PUSH2 0x6EE JUMP JUMPDEST JUMPDEST PUSH2 0x8F7 DUP7 DUP3 DUP8 ADD PUSH2 0x864 JUMP JUMPDEST SWAP2 POP POP SWAP3 POP SWAP3 POP SWAP3 JUMP JUMPDEST PUSH32 0x4E487B7100000000000000000000000000000000000000000000000000000000 PUSH1 0x0 MSTORE PUSH1 0x22 PUSH1 0x4 MSTORE PUSH1 0x24 PUSH1 0x0 REVERT JUMPDEST PUSH1 0x0 PUSH1 0x2 DUP3 DIV SWAP1 POP PUSH1 0x1 DUP3 AND DUP1 PUSH2 0x948 JUMPI PUSH1 0x7F DUP3 AND SWAP2 POP JUMPDEST PUSH1 0x20 DUP3 LT DUP2 EQ ISZERO PUSH2 0x95C JUMPI PUSH2 0x95B PUSH2 0x901 JUMP JUMPDEST JUMPDEST POP SWAP2 SWAP1 POP JUMP JUMPDEST PUSH32 0x4E487B7100000000000000000000000000000000000000000000000000000000 PUSH1 0x0 MSTORE PUSH1 0x11 PUSH1 0x4 MSTORE PUSH1 0x24 PUSH1 0x0 REVERT JUMPDEST PUSH1 0x0 PUSH2 0x99C DUP3 PUSH2 0x4E8 JUMP JUMPDEST SWAP2 POP PUSH2 0x9A7 DUP4 PUSH2 0x4E8 JUMP JUMPDEST SWAP3 POP DUP3 PUSH32 0xFFFFFFFFFFFFFFFFFFFFFFFFFFFFFFFFFFFFFFFFFFFFFFFFFFFFFFFFFFFFFFFF SUB DUP3 GT ISZERO PUSH2 0x9DC JUMPI PUSH2 0x9DB PUSH2 0x962 JUMP JUMPDEST JUMPDEST DUP3 DUP3 ADD SWAP1 POP SWAP3 SWAP2 POP POP JUMP JUMPDEST PUSH2 0x9F0 DUP2 PUSH2 0x4C7 JUMP JUMPDEST DUP3 MSTORE POP POP JUMP JUMPDEST PUSH1 0x0 DUP2 SWAP1 POP SWAP2 SWAP1 POP JUMP JUMPDEST PUSH1 0x0 PUSH2 0xA1B PUSH2 0xA16 PUSH2 0xA11 DUP5 PUSH2 0x4A7 JUMP JUMPDEST PUSH2 0x9F6 JUMP JUMPDEST PUSH2 0x4A7 JUMP JUMPDEST SWAP1 POP SWAP2 SWAP1 POP JUMP JUMPDEST PUSH1 0x0 PUSH2 0xA2D DUP3 PUSH2 0xA00 JUMP JUMPDEST SWAP1 POP SWAP2 SWAP1 POP JUMP JUMPDEST PUSH1 0x0 PUSH2 0xA3F DUP3 PUSH2 0xA22 JUMP JUMPDEST SWAP1 POP SWAP2 SWAP1 POP JUMP JUMPDEST PUSH2 0xA4F DUP2 PUSH2 0xA34 JUMP JUMPDEST DUP3 MSTORE POP POP JUMP JUMPDEST PUSH1 0x0 DUP3 DUP3 MSTORE PUSH1 0x20 DUP3 ADD SWAP1 POP SWAP3 SWAP2 POP POP JUMP JUMPDEST PUSH1 0x0 PUSH2 0xA71 DUP3 PUSH2 0x501 JUMP JUMPDEST PUSH2 0xA7B DUP2 DUP6 PUSH2 0xA55 JUMP JUMPDEST SWAP4 POP PUSH2 0xA8B DUP2 DUP6 PUSH1 0x20 DUP7 ADD PUSH2 0x51D JUMP JUMPDEST PUSH2 0xA94 DUP2 PUSH2 0x550 JUMP JUMPDEST DUP5 ADD SWAP2 POP POP SWAP3 SWAP2 POP POP JUMP JUMPDEST PUSH1 0x0 PUSH1 0x80 DUP3 ADD SWAP1 POP PUSH2 0xAB4 PUSH1 0x0 DUP4 ADD DUP8 PUSH2 0x9E7 JUMP JUMPDEST PUSH2 0xAC1 PUSH1 0x20 DUP4 ADD DUP7 PUSH2 0xA46 JUMP JUMPDEST PUSH2 0xACE PUSH1 0x40 DUP4 ADD DUP6 PUSH2 0x6B5 JUMP JUMPDEST DUP2 DUP2 SUB PUSH1 0x60 DUP4 ADD MSTORE PUSH2 0xAE0 DUP2 DUP5 PUSH2 0xA66 JUMP JUMPDEST SWAP1 POP SWAP6 SWAP5 POP POP POP POP POP JUMP INVALID LOG2 PUSH5 0x6970667358 0x22 SLT KECCAK256 BASEFEE MLOAD SWAP8 CODECOPY 0xB3 0xBE 0xC4 DUP11 GASPRICE SDIV 0xC4 SWAP13 DUP1 0xD5 SSTORE EXP ISZERO 0xF PUSH10 0xCAAD6F2F46215398B9B8 STATICCALL PUSH14 0x8F64736F6C634300080900330000 "},"methodIdentifiers":{"addToBlockchain(address,uint256,string)":"eb12da4a","getAllTransactions()":"27506f53","getTransactionCount()":"2e7700f0"}}}}}